:1000000013000000130000001300000013000000A4
:100010009300000013010000930100001302000090
:100020009302000013030000930300001304000078
:100030009304000013050000930500001306000060
:100040009306000013070000930700001308000048
:10005000930800001309000093090000130A000030
:10006000930A0000130B0000930B0000130C000018
:10007000930C0000130D0000930D0000130E000000
:10008000930E0000130F0000930F00009300100068
:10009000130120009301300013024000930250002E
:1000A000130360009303700013048000B324110055
:1000B00033B52000B355120033F67100B3161100AA
:1000C00033874000B3C7510033E86000B71F00001A
:1000D00023A01F0023A22F0023A43F0023A64F002C
:1000E00023A85F0023AA6F0023AC7F0023AE8F00FC
:1000F00023A09F0223A2AF0223A4BF0223A6CF0204
:1001000023A8DF0223AAEF0223ACFF0223AE0F03D2
:1001100083A80F0203A94F0283A98F0203AACF026B
:1001200083AA0F0303AB4F0383AB8F0303ACCF034F
:100130001300000013000000130000001300000073
:1001400073001000130000001300000013000000F3
:040150001300000098
:00000001FF
