:1000000013000000130000001300000013000000A4
:10001000130000006F004000B72F0000938F8F0285
:100020009300000023A01F0023A21F00372100001F
:10003000130101E09381000013820000938200000D
:100040001383000093830000138400009384000056
:10005000138500009385000013860000938600003E
:100060001387000093870000138800009388000026
:100070001389000093890000138A0000938A00000E
:10008000138B0000938B0000138C0000938C0000F6
:10009000138D0000938D0000138E0000938E0000DE
:1000A000138F0000938F0000EF00003373001000E7
:1000B000130101FD232681021304010393070500A8
:1000C000232CB4FC232AC4FCA30FF4FC032784FDD7
:1000D0009307070093972700B387E700939767007C
:1000E0002326F4FE832744FD939727002324F4FE60
:1000F000032784FE8327C4FE3307F700B7370000C9
:10010000B307F7002322F4FE032784FE8327C4FEEF
:100110003307F700B737000093870714B307F700DA
:100120002320F4FE8347F4FD13972700B727000030
:1001300093870710B307F70003A70700832744FE40
:1001400023A0E7008347F4FD13972700B72700009B
:1001500093870730B307F70003A70700832704FE40
:1001600023A0E700130000000324C10213010103D0
:1001700067800000130101FD232611022324810260
:1001800013040103232EA4FC232604FE232404FECF
:10019000232204FEB72700009387C70283A7070026
:1001A0002322F4FEB72700009387870283A7070066
:1001B0002324F4FE6F00800B8327C4FE0327C4FDB5
:1001C000B307F70003C707009307A000631AF702FD
:1001D000232204FE832784FE938727002324F4FE32
:1001E000032784FE930780076314F700232404FE8B
:1001F0008327C4FE938717002326F4FE6F000007B1
:100200008327C4FE0327C4FDB307F70083C7070095
:10021000032784FE832644FE138606009305070009
:1002200013850700EFF0DFE8832744FE938717006C
:100230002322F4FE032744FE930700056312F7020E
:10024000232204FE832784FE938727002324F4FEC1
:10025000032784FE930780076314F700232404FE1A
:100260008327C4FE938717002326F4FE8327C4FE4A
:100270000327C4FDB307F70083C70700E39E07F217
:10028000B72700009387C702032744FE23A0E70097
:10029000B727000093878702032784FE23A0E70087
:1002A000130000008320C102032481021301010313
:1002B00067800000130101FD23268102130401035E
:1002C000232EA4FC232CB4FC232AC4FC032784FD86
:1002D0009307070093972700B387E700939767007A
:1002E0002326F4FE832744FD939727002324F4FE5E
:1002F000032784FE8327C4FE3307F700B7370000C7
:10030000B307F7002322F4FE032784FE8327C4FEED
:100310003307F700B737000093870714B307F700D8
:100320002320F4FE8327C4FD13972700B72700007E
:1003300093870750B307F70003A70700832744FEFE
:1003400023A0E7008327C4FD13972700B7270000E9
:1003500093870760B307F70003A70700832704FE0E
:1003600023A0E700130000000324C10213010103CE
:1003700067800000130101FE232E81001304010297
:10038000232604FEB73700002324F4FE232604FEB0
:100390006F0040028327C4FE93972700032784FE43
:1003A000B307F70023A007008327C4FE9387170035
:1003B0002326F4FE0327C4FEB72700009387F757D0
:1003C000E3DAE7FC13000000130000000324C1017E
:1003D0001301010267800000130101FE232E1100AA
:1003E000232C810013040102232604FE232604FE8D
:1003F0006F000004B717000013850700EFF09FD7C8
:10040000B717000013858702EFF0DFD6B71700009B
:1004100013850705EFF01FD6B7170000138587086F
:10042000EFF05FD58327C4FE938717002326F4FEE1
:100430008327C4FEE350F0FC1306F0009305A000F0
:1004400013051000EFF01FE7130600019305A0004D
:1004500013052000EFF01FE6130610019305A0001E
:1004600013053000EFF01FE5130620019305A000EF
:1004700013054000EFF01FE4130630019305A000C0
:1004800013055000EFF01FE39307000013850700EA
:100490008320C10103248101130101026780000050
:10100000574520415245205448452050454F504CAB
:101010004520544841542052554C452054484520C1
:10102000574F524C442E0A004120464F5243452010
:1010300052554E4E494E4720494E2045564552592D
:1010400020424F5920414E44204749524C2E0A001D
:10105000414C4C2052454A4F4943494E4720494E46
:101060002054484520574F524C442C2054414B4566
:10107000204D45204E4F572057452043414E205488
:1010800052592E0A000000003031323334353637E1
:0410900038390A00E1
:04000003000000B049
:00000001FF
